:100000000C946C050C9496050C9496050C9496052E
:100010000C9496050C9496050C9496050C949605F4
:100020000C9496050C9496050C9465230C943D2431
:100030000C94681A0C9496050C9496050C949605ED
:100040000C9496050C9496050C9496050C949605C4
:100050000C9496050C94DA1A0C9496050C9496055B
:100060000C9496050C9496050C9496050C949605A4
:100070000C9496050C9496050C9496050C94960594
:100080000C9496050C9496050C9496050C94960584
:100090000C9496050C949605DE5CDD5C060007006A
:1000A000080009000A000B000C000D000E000F00F4
:1000B000100011001200130044454255473A2064D5
:1000C000697361626C65642E0A0044454255473A83
:1000D00020656E61626C65642E0A000A0025303866
:1000E00062003A200025303258000A722F63203017
:1000F000313233343536370A006261636B6C6967BD
:10010000687420737465703A2025750A0062616313
:100110006B6C696768742064697361626C650A005E
:100120006261636B6C6967687420656E61626C659F
:100130000A006261636B6C6967687420746F67673B
:100140006C653A2025750A006261636B6C696768AB
:10015000742064656372656173653A2025750A00D1
:100160006261636B6C6967687420696E6372656154
:1001700073653A2025750A000A00253032582000A0
:100180006B6579626F6172645F7265706F72743AE9
:1001900020000A0025303258006B6579626F617269
:1001A000645F7365745F6C65643A20003F00433E92
:1001B00020004C25640A0074696D65725F72656188
:1001C00064333228293A202530346C580A006B6594
:1001D00079626F6172645F69646C653A2025580AC0
:1001E000006B6579626F6172645F70726F746F63C8
:1001F0006F6C3A2025580A00686F73745F6B6579DD
:10020000626F6172645F6C65647328293A202558B7
:100210000A000A092D20537461747573202D0A0099
:100220004743433A20382E332E30204156522D4C2E
:100230004942433A20322E302E30204156525F41FF
:100240005243483A2061767235310A004F50544982
:100250004F4E533A204C5546412045585452414B3D
:10026000455920434F4E534F4C4520434F4D4D4130
:100270004E4420313032340A004255494C443A2031
:1002800022302E372E37392D382D676236303862BE
:100290006422202832313A30333A3132204A616EBA
:1002A0002031312032303230290A005649443A2078
:1002B000307846454544284A61636B204368656E43
:1002C00029205049443A2030783030303028746545
:1002D0007374636F6E6365707429205645523A20BB
:1002E0003078303030310A00444553433A204120C1
:1002F000637573746F6D206B6579626F6172640AE8
:10030000000A092D2056657273696F6E202D0A0050
:100310000A092D20436F6E736F6C65202D0A4553BB
:10032000432F713A09717569740A000A092D204D2D
:1003300061676963202D0A443A0944656275672044
:100340004D65737361676520546F67676C650A5804
:100350003A094D6174726978204465627567204D71
:100360006F646520546F67676C65202D2053686F3C
:1003700077206B65797072657373657320696E2081
:100380006D617472697820677269640A4B3A094B2F
:100390006579626F61726420446562756720546F8D
:1003A00067676C65202D2053686F77206B657970C7
:1003B00072657373207265706F72740A4D3A0944E6
:1003C00065627567204D6F75736520546F67676C44
:1003D000650A563A0956657273696F6E0A533A098F
:1003E0005374617475730A433A09416374697661A1
:1003F000746520436F6E736F6C65204D6F64650A82
:1004000046312D4631303A09537769746368207458
:100410006F204C6179657220302D392028463130AB
:10042000203D204C30290A302D393A095377697420
:10043000636820746F204C6179657220302D390A11
:1004400047524156453A0953776974636820746F7F
:10045000204C6179657220302028616C7465726E61
:10046000617465290A423A094A756D7020746F20DB
:10047000426F6F746C6F616465720A4553433A0949
:100480004A756D7020746F20426F6F746C6F616479
:1004900065722028616C7465726E617465290A4505
:1004A0003A095072696E7420454550524F4D2053A1
:1004B000657474696E67730A4253504143453A0943
:1004C000436C65617220454550524F4D0A000A0049
:1004D0002575002E6C6576656C3A20000A0025753E
:1004E000002E656E61626C653A20000A002530328C
:1004F00058006261636B6C696768745F636F6E66F6
:1005000069672E7261773A20000A002575002E6E09
:100510006B726F3A20000A002575002E73776170A8
:100520005F6261636B736C6173685F6261636B735D
:10053000706163653A20000A002575002E737761AB
:10054000705F67726176655F6573633A20000A00C9
:100550002575002E6E6F5F6775693A20000A0025C9
:1005600075002E737761705F72616C745F7267756E
:10057000693A20000A002575002E737761705F6C60
:10058000616C745F6C6775693A20000A002575001C
:100590002E737761705F7263746C5F726775693A0E
:1005A00020000A002575002E737761705F6C6374FC
:1005B0006C5F6C6775693A20000A002575002E6330
:1005C0006170736C6F636B5F746F5F636F6E747277
:1005D0006F6C3A20000A002575002E737761705FFA
:1005E000636F6E74726F6C5F636170736C6F636B5B
:1005F0003A20000A0025303258006B65796D617031
:100600005F636F6E6669672E7261773A20000A0039
:100610002575002E6D6F7573653A20000A002575EB
:10062000002E6B6579626F6172643A20000A0025C2
:1006300075002E6D61747269783A20000A00257584
:10064000002E656E61626C653A20000A002530322A
:10065000580064656275675F636F6E6669672E72C6
:1006600061773A20000A0025750064656661756C43
:10067000745F6C617965723A20003F000A6D6F7596
:1006800073653A206F66660A000A6D6F7573653A86
:10069000206F6E0A000A6B6579626F6172643A209E
:1006A0006F66660A000A6B6579626F6172643A2050
:1006B0006F6E0A000A6D61747269783A206F66661F
:1006C0000A000A6D61747269783A206F6E0A000A36
:1006D00064656275673A206F66660A000A6465623F
:1006E00075673A206F6E0A000A0A4A756D70696E66
:1006F0006720746F20626F6F746C6F616465722E17
:100700002E2E2000433E2000436C656172696E67A7
:1007100020454550524F4D0A006565636F6E66690E
:10072000673A0A004B6579626F6172642073746185
:1007300072742E0A005B575D005B535D005B525D77
:10074000005B445D005B435D000403300000001863
:1007500003740065007300740063006F006E006333
:1007600000650070007400000014034A006100631B
:10077000006B0020004300680065006E000000046C
:1007800003090409025B00030100A0FA0904000048
:1007900001030101000921110100012240000705A8
:1007A000810308000A090401000103000000092177
:1007B000110100012236000705820320000A090406
:1007C00002000203000000092111010001222200A1
:1007D0000705830320000107050303200001120120
:1007E000100100000008EDFE0000010001020301FD
:1007F0000631FF0974A1010975150026FF00952037
:10080000750881020976150026FF0095207508916C
:1008100002C005010980A10185031A81002A830015
:10082000160100260300950175108100C0050C0912
:1008300001A10185041A01002A9C02160100269CD0
:1008400002950175108100C005010906A101050787
:1008500019E029E715002501950875018102950128
:10086000750881010507190029FF150026FF00956D
:10087000067508810005081901290595057501917E
:1008800002950175039101C07761697420666F72EA
:10089000206275662073706163650A0041542B42C3
:1008A0004C45484944434F4E54524F4C4B45593D9B
:1008B0003078253034780041542B424C454B455913
:1008C000424F415244434F44453D253032782D300C
:1008D000302D253032782D253032782D2530327864
:1008E0002D253032782D253032782D253032780084
:1008F00073656E64206C6174656E63792025646D28
:10090000730A0041542B474150474554434F4E4EC4
:100910000041542B4556454E54454E41424C453DB1
:100920003078320041542B4556454E54454E414295
:100930004C453D307831002A2A2A2A2A2A20424C66
:100940004520444953434F4E4E45435421212121D4
:100950000A002A2A2A2A2A2A20424C4520434F4E9E
:100960004E454354212121210A006661696C65646A
:1009700020424C4520636F6D6D616E643A202553B3
:100980003A2025730A00EB09AB09D109C309920982
:10099000A70941542B424C45504F5745524C4556A0
:1009A000454C3D2D31320041545A0041542B4741B2
:1009B00050494E54455256414C533D31302C333002
:1009C0002C2C0041542B424C45484944454E3D3166
:1009D0000041542B4741504445564E414D453D74CE
:1009E000657374636F6E63657074004154453D3088
:1009F000007761697465642025646D7320666F7289
:100A000020726573705F6275660A00626C652073A0
:100A1000656E643A2025730A00726573756C743ACA
:100A20002025730A004F4B00736465705F72656325
:100A3000765F706B74206661696C65640A0077612B
:100A40006974206F6E2062756620666F7220257350
:100A50000A006661696C656420746F2073656E645A
:100A60002C2077696C6C2072657472790A0073654A
:100A70006E645F6275665F73656E645F6F6E653A24
:100A800020686176652025642072656D61696E69F4
:100A90006E670A0077616974696E675F666F725F7F
:100AA000726573756C743A2074696D656F75742C1A
:100AB00020726573705F6275662073697A652025A0
:100AC000640A0072656376206C6174656E637920D8
:100AD00025646D730A00F42B11241FBECFEFD0E202
:100AE000DEBFCDBF11E0A0E0B1E0EAEAFFE500E043
:100AF0000BBF02C007900D92A632B107D9F723E0D1
:100B0000A6E2B1E001C01D92A436B207E1F715E0FC
:100B1000CCE6D5E004C02197FE010E941D2CCB3607
:100B2000D107C9F70E94AC200C94AD2F0C940000A3
:100B3000FF93EF93E0912601F0912701309709F0A0
:100B40000995EF91FF910895FC018591803011F096
:100B5000EFDFFBCF0895FF27E0E230E247FF0CC054
:100B6000419597FF09C0EDE260957095809590954D
:100B7000611D711D811D911D27FF02C0219530E36C
:100B800050E2AA27660F771F881F991FAA1FA41774
:100B900010F0A41B63955A95A9F7AA3008F0A95F35
:100BA000A05DAF93F395611571058105910541F73E
:100BB000ED3211F4EF93F395F21718F43F93F39598
:100BC000FBCF8F91B5DFFA95E1F70895E991F9919F
:100BD0008591803021F0853219F0AADFF9CF089590
:100BE00020E0E89455915532C1F3503311F46894E4
:100BF00055915A3348F4505390F3220F022E220F8E
:100C0000220F200D250FF4CF0EF421958991999193
:100C1000533619F3533729F1533559F1BC0188275D
:100C20009927E8945C3621F48991999168945591BB
:100C3000543639F446EF7EF077FF0DC08FEF9FEF0B
:100C40000AC055374AE039F0583540E121F05236B4
:100C500042E009F00895FF93EF937DDFEF91FF915C
:100C6000B7CFFF93EF93FC0181918030B9F360DF40
:100C7000FBCFFF93EF9368DFF1CFDF93CF93CDB737
:100C8000DEB72596A3DFCF91DF9108950C944E0631
:100C90000C944F060C9454060C9450060895089535
:100CA00081E0089581E0089581E008951F93CF9336
:100CB000DF9300D000D00F92CDB7DEB749835A83BF
:100CC0006B832091420189819A8121111BC0662387
:100CD000A9F00E941618182F682F89819A810E9406
:100CE000C31769817A81812F0F900F900F900F9019
:100CF0000F90DF91CF911F910C9471080E94EF1714
:100D0000182FEFCF0E94161869817A81EDCFFC0170
:100D1000408151816281738184810C9456060E94C6
:100D20006A19811102C00E94101A0E94DD0D0C94F4
:100D300046060C94480608950C949B06CF93C82F42
:100D40000E949C068C2FCF910C944C0608950E9413
:100D50007B130E94A6062FEF84E39CE02150804085
:100D60009040E1F700C000000C94FE1A0F931F930F
:100D7000CF93DF938C010E948706EC01B8010E949B
:100D80004A06882309F494C0B801CE010E944C0E93
:100D9000882309F48DC0CC3D8CE5D80709F4ABC09D
:100DA00088F5C631FCE5DF07A8F4C2308CE5D8072A
:100DB00008F042C0C115ECE5DE0709F474C0C1308B
:100DC000DC4509F47BC0C801DF91CF911F910F91E1
:100DD0000C945206C631DC45B1F70E94AB18F801FD
:100DE0009281992309F473C18A7A91E009F490E021
:100DF00090932801811169C189E20E9486180E949E
:100E0000EA1856C0CF3DECE5DE0709F46DC078F472
:100E1000CD3D8CE5D80709F476C0CE3DDC4599F68A
:100E2000F8018281882309F443C083E069C0CE01C0
:100E30008B5F9C45099738F6F8018281882319F267
:100E40000E946A19811102C00E94101A0E947D1925
:100E50009093560380935503C031FCE5DF0709F4F6
:100E600001C108F090C0C830ECE5DE0709F4E8C025
:100E700008F062C0C4308CE5D80709F4D9C008F086
:100E800048C0C230FCE5DF0709F4C8C0C330DC4508
:100E900009F4CAC080915503909156030E948B19A2
:100EA0000E947B1305C0F801828181110E94A70670
:100EB00080E0DF91CF911F910F910895F801828119
:100EC0008823B1F390919A01892F8E7F90FF8160E2
:100ED00080939A0180FF05C08AEC90E00E94A405EF
:100EE000E7CF88EB90E0FACFF8018281882301F305
:100EF0000E94101ADDCFF80182818823C9F280E0B8
:100F00000E944021D5CFF8018281882389F282E0B6
:100F1000F7CF809155038061C630ECE5DE0709F418
:100F200080C0809155038860C730DC4508F479C0E3
:100F300080915503806275C0CC308CE5D80709F4E8
:100F400089C070F4809155038C60CA30FCE5DF07DE
:100F500009F467C008F478C0809155038E7F61C0A2
:100F600080915503877FCE30ECE5DE0709F459C048
:100F7000809155038B7FCF30DC4508F452C08091BF
:100F800055038F7E4EC0CC3F8CE5D80709F454C082
:100F900030F5C331FCE5DF0709F46CC078F4C131EA
:100FA000ECE5DE0709F462C0C231DC4509F072CF1E
:100FB0000E947B13809155038F7733C0C5318CE538
:100FC000D80709F45FC008F473C0809156038160AC
:100FD000CB3FDC4509F05ECF809356035BCFC11554
:100FE0008DE5D80709F44AC060F4809156038D7FDF
:100FF000CE3FFCE5DF0781F388F1809156038360E3
:10100000EBCFC230EDE5DE0709F45BC008F446C063
:10101000C330DD4509F03ECF80E054C080915503D8
:1010200081608093550336CF809155038260F9CF5C
:10103000809155038460F5CF809156038260CCCFB8
:10104000809155038064EDCF0E947B1380915503FE
:101050008068E7CF809155038D7FE3CF8091560361
:101060008E7FBACF809155038F7DDBCF8091550362
:101070008F7BD7CF80915503837FD3CF8091560349
:101080008C7FAACF8091550382FB992790F921E0AC
:10109000922790FB82F990FB83F9C3CF809156038E
:1010A000982F909591708E7F892B90FB81F994CF2A
:1010B0000E947B1390915503892F97FB87F98058E5
:1010C000B0CF81E00E94121AE5CE85E396CE8091E2
:1010D0002801811104C089E20E948D1890CE85E319
:1010E000FBCF24E0829FC0011124FC01E70FF11D1A
:1010F000EE0FFF1FEE0FFF1FE60FF11DEE0FFF1F9C
:10110000E856FF4F859194910895FC01EE0FFF1F63
:10111000E552FF4F859194910895CF93DF930E94FC
:1011200071080E94730AEC01811521E5920708F00D
:1011300049C0811530E5930708F030C1883E91051C
:1011400008F5803E910570F5883A910570F4853A6E
:10115000910508F0AEC08130910521F1009711F1A1
:10116000049700F5D0E0C0E01DC08F3B910508F466
:10117000ABC0805C9109C03CD105A0F30E948508FA
:10118000EC0110C08115904388F4C11580E2D807A6
:1011900008F0FBC0C03FD10528F3CF3FD10509F0CF
:1011A00008F4F1C0CE01DF91CF910895C11590E40C
:1011B000D90708F0F0C0CE019927D3FFE9C0EC01B0
:1011C000D86CF0CF811529E5920760F5811538E5D7
:1011D000930708F029C1811544E5940778F4C115F7
:1011E00083E5D80708F007C1C11592E5D90708F0D3
:1011F000F1C0DC2FCC27C16FD06AD4CF811525E593
:10120000920708F40CC1811536E5930708F0AACFC0
:101210000E940A0BC82FD0E0DC2FCC27CC27DF712F
:10122000D062C0CF8D3B9C4509F403C1CE3B8CE519
:10123000D807D0F4CB3B9CE5D90709F4FDC008F0F2
:10124000FEC0C1153AE5D30708F08CCF8C2F8F7004
:101250000E940A0B34E0D695C7953A95E1F7CF7016
:101260009C2FEC01D0699ECFC03C4CE5D40709F41B
:10127000E9C060F4CE3B9CE5D90709F4E6C0CF3B5A
:10128000DC4509F06FCFC0E0D2ED8CCFCE01905697
:101290008115904208F066CF8D2F8F710E940A0B46
:1012A00090E0982F882788279F719C012C2BE901BB
:1012B000B7CF853A910509F4CBC0863A910509F07C
:1012C000CAC0C2E8D0E46ECF883A910509F4C6C01E
:1012D000893A910509F4C5C08A3A910509F4C4C058
:1012E0008B3A910509F4C3C08C3A910509F4C2C048
:1012F0008B3B910509F4C1C08C3B910509F4C0C03A
:101300008D3A910509F4BFC0803B910509F4BEC038
:101310008E3A910509F4BDC08F3A910509F4BCC01D
:10132000813B910509F4BBC0823B910509F4BAC029
:10133000833B910509F4B9C0843B910509F4B8C019
:10134000853B910509F4B7C0863B910509F4B6C009
:10135000873B910509F4B5C0883B910509F4B4C0F9
:10136000893B910509F4B3C08D3B910509F4B2C0E6
:101370008E3B910509F4B1C08A3B910509F4B0C0D8
:10138000C0E0D4E40FCFD0650DCFCE019F70F6CE74
:10139000EC01D06C07CFDF70D06A04CFE4E0969503
:1013A0008795EA95E1F783702C2F26952695237073
:1013B00040E2249F90011124382B8C2F8370C1E0D0
:1013C000D0E002C0CC0FDD1F8A95E2F7C22BD32BF1
:1013D000DC68E8CECE018370992721E030E002C0BE
:1013E000220F331F8A95E2F7C695C69580E2C89F03
:1013F000E0011124EBCFCE018370992721E030E08A
:1014000002C0220F331F8A95E2F7C695C69590E277
:10141000C99FE0011124C22BD32BDA68C3CED82F89
:10142000CC27C46FD06ABECED82FCC27C06FD06A6D
:10143000B9CEC0E0D1EDB6CEC0E0D4EDB3CEC0E0C1
:10144000D5EDB0CEC0E0D3EDADCEC0E0D0EDAACEAC
:10145000C1E8D0E4A7CEC3E8D0E4A4CEC2EED4E481
:10146000A1CEC9EED4E49ECECAEED4E49BCEC5EBA9
:10147000D4E498CEC6EBD4E495CEC3EBD4E492CEBC
:10148000C4EBD4E48FCEC7EBD4E48CCECCECD4E464
:1014900089CECDECD4E486CEC3E8D5E483CECAE8C9
:1014A000D5E480CEC2E9D5E47DCEC4E9D5E47ACED8
:1014B000C1E2D6E477CEC3E2D6E474CEC4E2D6E489
:1014C00071CEC5E2D6E46ECEC6E2D6E46BCEC7E2FC
:1014D000D6E468CECFE6D4E465CEC0E7D4E462CEED
:1014E000CAE2D6E45FCE82389105B1F1B0F481331F
:1014F000910509F475C048F48932910509F469C071
:101500008A32910509F473C008958533910509F471
:1015100059C08933910501F10895833E9105A9F1E0
:1015200038F4803E9105F9F0823E910549F1089525
:10153000863E9105A9F1873E9105C9F1843E91054A
:1015400019F52091560321FF1FC08091550384FD9A
:1015500014C087EE90E00895209155032370A1F008
:1015600080EE90E008952091550320FD47C0309112
:10157000560330FF09C024FF44C090E080E004C05F
:101580002091550322FDF7CF08952091550322FDA8
:101590003BC03091560330FDE3CF24FFF5CFEDCFB4
:1015A0002091550323FFF0CF24FDE7CFD2CF209128
:1015B000550323FD2CC03091560331FFEECF84EE4E
:1015C00090E008952091550325FFDECF89E290E059
:1015D00008952091550325FFD7CF85E390E0089526
:1015E0002091550326FFD0CF8AE290E00895209104
:1015F000550326FFC9CF81E390E0089589E390E089
:10160000089583EE90E0089582EE90E0089586EECE
:1016100090E008959091550392FF06C0282F2871FD
:101620002830F9F4877F846093FF06C0282F287143
:101630002831F1F4877E84612091560320FF06C093
:10164000382F38713830D9F4877F816021FF06C088
:10165000282F28712831D1F4877E816194FD877EFF
:101660000895282F24712430F9F68B7F8860DCCF11
:10167000282F2471243101F78B7E8861DDCF382F2C
:101680003171313019F78E7F8860E0CF282F2171BA
:10169000213121F78E7E8861E1CFE82FF0E0E75D10
:1016A000FE4F80810895CF92DF92EF92FF920F93C9
:1016B0001F93CF93DF938AEE90E00E94A40589E206
:1016C000E82E81E0F82ED0E0C0E095EEC92E90E043
:1016D000D92E0DED10E0DF93CF93DF92CF920E94D1
:1016E0003D0682EE90E00E94A405F70181917F0102
:1016F0000E9452191F928F931F930F930E943D06D1
:101700008BED90E00E94A40521968DB79EB70896B8
:101710000FB6F8949EBF0FBE8DBFC430D105D9F669
:10172000DF91CF911F910F91FF90EF90DF90CF90BD
:101730000895CF93DF93A3E1B1E047E151E0C1E029
:10174000D0E08D91E82FE295EF70F0E061A18F700D
:101750009E0101C0220F8A95EAF7922F9095962359
:1017600091A382A1822B82A34A175B0751F7AFE0B6
:10177000B1E043E151E0C1E0D0E08D91E82FE29586
:10178000EF70F0E061A18F709E0101C0220F8A9579
:10179000EAF7922F9095962391A382A1822B82A3A0
:1017A0004A175B0751F710922D01109229011092F0
:1017B0002E0110922A0110922F0110922B011092EB
:1017C000300110922C0184E00E94700CDF91CF91C7
:1017D0000C948F067F928F929F92AF92BF92CF927E
:1017E000DF92EF92FF920F931F93CF93DF932DE23F
:1017F00031E003E111E0712CEE24E394F12CE901D6
:10180000B9909E01DE011E92F80181918F01E82FAF
:10181000E295EF70F0E091A18F70B70101C0660F03
:101820008A95EAF7892F862B81A382A1A62EA09400
:101830008A2182A380EA8A95F1F78FE0C82E81E0A1
:10184000D82E50E040E0E60189906E01882D829507
:101850008F7090E0EC0188A19C9090E0D82DDF7013
:1018600002C095958795DA95E2F780FD37C08E2DF9
:10187000042E01C0880F0A94EAF789298C934F5FE0
:101880005F4F44305105F9F681A18A2181A382A1DD
:10189000682B62A381E09C919B1101C080E0782AB3
:1018A000D1E021333D0709F0AACF272D44E069E2BA
:1018B00071E08DE291E00E94710C0E949906872DE3
:1018C000DF91CF911F910F91FF90EF90DF90CF901C
:1018D000BF90AF909F908F907F90089580E0CDCF84
:1018E0000895FF920F931F93CF93DF93F82E092F44
:1018F000162FD72FC42F222349F081E08093330184
:101900000E94981A909332018093310180913301A3
:101910008823A1F080913101909132010E94B01A88
:10192000069760F0EF2DF02FA12FBD2FCE0FDF2FE8
:10193000D11DEC17FD0741F410923301DF91CF91D7
:101940001F910F91FF90089581918D93F2CF0E9486
:101950006A19811102C00E94101A0E94981980937E
:101960005003803220F087708861809350039091FB
:101970005003892F817090FF04C0892F869586952A
:1019800086950C94DE0D80915003982F9695969530
:101990009695933040F49F5F990F990F990F877038
:1019A000892B809350038091500381608093500372
:1019B0000E949C1980919A0180FF11C08091500370
:1019C0008695869586951F928F9380E691E09F93EA
:1019D0008F930E943D060F900F900F900F90809173
:1019E00050038695869586950C94DE0D8091500364
:1019F000982F987F79F0885080935003887F91E0EA
:101A000009F490E08091500390FB80F9809350039B
:101A10000E949C1980919A0180FF11C0809150030F
:101A20008695869586951F928F9388E491E09F9383
:101A30008F930E943D060F900F900F900F90809112
:101A400050038695869586950C94DE0D8091500303
:101A500080FD1FC0816080935003813019F489E0BC
:101A600080935003809150030E949C1980919A01A9
:101A700080FF08C080E291E09F938F930E943D0613
:101A80000F900F90809150038695869586950C94C3
:101A9000DE0D08958091500380FF14C08E7F8093E7
:101AA00050030E949C1980919A0180FF08C08DE02C
:101AB00091E09F938F930E943D060F900F9080E0DE
:101AC0000C94DE0D0895CF93C0915003C1708091A6
:101AD0009A0180FF0CC01F92CF9382E391E09F9305
:101AE0008F930E943D060F900F900F900F90CC2384
:101AF00019F0CF910C944A0DCF910C94260D909132
:101B00005003892F8695869586958F5F8F71977084
:101B1000843080F5880F880F880F892B80935003BD
:101B200080915003887F91E009F490E08091500308
:101B300090FB80F9809350030E949C1980919A0138
:101B400080FF11C0809150038695869586951F92DF
:101B50008F9389EF90E09F938F930E943D060F90A3
:101B60000F900F900F9080915003869586958695E3
:101B70000C94DE0D90935003D3CF843008F083E0B3
:101B8000982F990F990F990F809150038770892B87
:101B900080935003887F91E009F490E08091500396
:101BA00090FB80F9809350030E949C198091500310
:101BB0008695869586950C94DE0D089508950F936D
:101BC0001F93CF93DF93C62FD42F022FFC01828166
:101BD0008823C9F0609336010E94981A90933501CA
:101BE0008093340180E28C0F883008F050C0C770B9
:101BF00081E001C0880FCA95EAF7DF91CF911F916C
:101C00000F910C94111110913601161335C080916B
:101C10003401909135010E94B01A883C910560F51D
:101C2000C0E2CD0F1D17B9F080E2810F883040F47B
:101C3000177081E001C0880F1A95EAF70E94181109
:101C4000C83048F481E09D2F977001C0880F9A95A5
:101C5000EAF70E941111802F0E94FE10C830B8F4DC
:101C6000D77081E001C0880FDA95EAF7DF91CF9154
:101C70001F910F910C94181180E28C0F883038F46A
:101C8000C77081E001C0880FCA95EAF7EFCFDF91F6
:101C9000CF911F910F9108959C01CB01243F4CE5FA
:101CA000340731F190F4283DFCE53F07E9F0293D88
:101CB0004CE5340769F1273D3C4579F426E241EED5
:101CC00061EE0E94DF0D80E00895263FFCE53F07AE
:101CD000B9F090F0273F3C45B9F0FC0182818823A0
:101CE000D1F010923601089527E245EE65EEE9CF76
:101CF00026E241EE60EEE5CF27E245EE64EEE1CF6D
:101D000026E241EE62EEDDCF27E245EE66EED9CF68
:101D100028E241E0EBCF81E0089590933C0180936D
:101D20003B010895E0913B01F0913C01309721F097
:101D30000190F081E02D099480E00895EF92FF92E8
:101D40000F931F93CF93DF938C01E0913B01F091B0
:101D50003C013097C1F10280F381E02D099580911B
:101D60009A0182FF30C080FF04C080E891E00E94A9
:101D7000A405D0E0C0E08AE7E82E81E0F82E80914B
:101D80009A0180FF0EC0F801EC0FFD1F80811F92A9
:101D90008F93FF92EF920E943D060F900F900F904D
:101DA0000F902196C830D10551F780919A0180FF9C
:101DB0000AC088E791E0DF91CF911F910F91FF90CA
:101DC000EF900C94A405DF91CF911F910F91FF909C
:101DD000EF9008952091390130913A012817390781
:101DE00071F090933A0180933901E0913B01F091B9
:101DF0003C01309721F00680F781E02D0994089589
:101E000020913701309138012817390771F09093EC
:101E1000380180933701E0913B01F0913C0130970C
:101E200021F00084F185E02D0994089585B780683C
:101E300085BF85B7806885BF0895089508950C947F
:101E40001D0F08950C94210F0E94160F0E941E0F63
:101E50000C941F0F81E008950E948F1A0E94990B25
:101E60000E94301B0E94A70C0C94220FCF93C82F06
:101E700080919A0182FF1EC080FF1CC089E991E019
:101E80000E94A40580919A0180FF14C01F92CF93F5
:101E900084E991E09F938F930E943D0680919A017F
:101EA0000F900F900F900F9080FF04C082E991E097
:101EB0000E94A4058C2FCF910C949E06BF92CF92C6
:101EC000DF92EF92FF920F931F93CF93DF93CDB7E3
:101ED000DEB72A970FB6F894DEBF0FBECDBF0E94C3
:101EE000EA0B0E942A0F882309F46FC08EE3C82EE4
:101EF00081E0D82E10E000E0B02E802F0E944D0B24
:101F0000E82EF601F1906F01F81609F458C080919F
:101F10009A0181FD0E94530B90E080E0FE242F2D5A
:101F200030E0482FB901082E02C0759567950A94D4
:101F3000E2F760FF3FC08E83BF8281E090E06C01DA
:101F400002C0CC0CDD1C4A95E2F72E2D30E02C218E
:101F50003D21232B09F480E088870E94981A816034
:101F6000782F9A8789874E815F8168858A850E944C
:101F70000610F801E25CFE4F80818C2580830E9470
:101F8000920E90913D01891789F10E94920E8093E3
:101F90003D012A960FB6F894DEBF0FBECDBFDF918C
:101FA000CF911F910F91FF90EF90DF90CF90BF9056
:101FB0000C94360F01968430910509F0B2CF0F5F73
:101FC0001F4F0430110509F097CF8FEF89838A8363
:101FD0001B820E94981A8160782F9D838C8349818F
:101FE0005A816B818D810E940610C9CF2A960FB647
:101FF000F894DEBF0FBECDBFDF91CF911F910F913F
:10200000FF90EF90DF90CF90BF900895CF93DF9334
:10201000CDB7DEB72B970FB6F894DEBF0FBECDBF9E
:102020004F83588769877A878B871E821D8285E058
:10203000FE013796DE01119601900D928A95E1F727
:1020400049815A816B817C818D819E812B960FB64F
:10205000F894DEBF0FBECDBFDF91CF910C941B165D
:10206000FC01808191810C945818CF93C82F88234C
:1020700009F49AC08CEF8C0F813A58F48C2F0E948F
:10208000151E811191C08C2F0E948618CF910C943F
:10209000EA1880E28C0F883048F4C77081E001C0F4
:1020A000880FCA95EAF70E94AE18F0CF8BE58C0F27
:1020B000833068F481E890E0C53A31F083E890E03D
:1020C000C63A11F482E890E0CF910C94EA0E88E5CC
:1020D0008C0F873108F068C082EE90E0C83A09F4AE
:1020E00060C089EE90E0C93A09F45BC08AEE90E0E6
:1020F000CA3A09F456C085EB90E0CB3A09F451C0D6
:1021000086EB90E0CC3A09F44CC083EB90E0CB3BFB
:1021100009F447C084EB90E0CC3B09F442C087EB64
:1021200090E0CD3AF1F18CEC90E0C03BD1F18DEC38
:1021300090E0CE3AB1F183E891E0CF3A91F18AE8AC
:1021400091E0C13B71F182E991E0C23B51F184E938
:1021500091E0C33B31F181E292E0C43B11F183E2B3
:1021600092E0C53BF1F084E292E0C63BD1F085E21B
:1021700092E0C73BB1F086E292E0C83B91F087E283
:1021800092E0C93B71F08FE690E0CD3B51F080E7E3
:1021900090E0CE3B31F090E080E0CA3B11F48AE25F
:1021A00092E0CF910C94000FCF910895882329F1EC
:1021B0009CEF980F913A20F40E948D180C94EA1825
:1021C00090E2980F983050F4877091E001C0990F19
:1021D0008A95EAF7892F0E94B418F0CF9BE5980FF3
:1021E000933020F490E080E00C94EA0E885A873116
:1021F00020F490E080E00C94000F0895CF93C82F56
:102200000E943510C93349F42FEF87EE93E0215037
:1022100080409040E1F700C000008C2FCF910C94DB
:10222000D610882321F00E94AE180C94EA18089565
:10223000882321F00E94B4180C94EA180895BF92E4
:10224000CF92DF92EF92FF920F931F93CF93DF9382
:102250006C01D62FC72FFC01058102950F701281EA
:1022600011110E94CB180E94A418E82E882371F047
:102270001123C9F080E28D0F8830A8F082E00E941F
:1022800035190E94A41891E0E82EE926BC2EB294DC
:102290009FE0B922FDE0FB15A8F1EB2DF0E0E15540
:1022A000F04D0C941D2CE12CF1CF0C2F0F70C07F42
:1022B00011F00295007F1123A9F0002359F080E26C
:1022C0008D0F883010F0D11109C0802F0E94AE18F8
:1022D0000E94EA188D2F0E94351014C0802F0E9492
:1022E000BE18F6CF8D2F0E94D610002359F080E241
:1022F0008D0F883010F0D1112CC0802F0E94B4189F
:102300000E94EA182B2D2850330B2430310520F47D
:102310000E94920E0E949E06EE2009F4A6C10E9421
:10232000A01880FDA2C1F60112820E949A180E9494
:102330002717C6010E943F130E949A18DF91CF9180
:102340001F910F91FF90EF90DF90CF90BF900C9472
:102350004817802F0E94C418D3CF2C2F2F70F22E35
:10236000C07FC03219F0F29480EFF822DD2369F0CB
:10237000D13049F1112391F1002351F1F60185810A
:1023800080FFA8CF8F70858323C0112381F00111B6
:1023900006C00E94D1188F290E941111B3CF0130BD
:1023A000C1F70E94D1188F290E94D718ABCF011115
:1023B00006C00E94E0188F2D0E941811A3CF013093
:1023C00009F4A0CFF6CF112329F0063008F09ACFF8
:1023D0008F2DE2CF053008F095CFEDCF002359F3D4
:1023E000D93349F4FFEF27EE33E0F150204030407D
:1023F000E1F700C000008D2F0E94D61083CF8C2FF4
:1024000086958695837069F0813009F07BCF8D2F9A
:102410009C2F9370111102C090E080E00E94000F89
:1024200071CF8D2F9C2F9370111102C090E080E02E
:102430000E94EA0E67CF8C2F837009F041C0111102
:1024400061CF4D2F429546954770440F440F0D2F95
:102450000F7010E030E020E0042E04C0000F111FC8
:10246000221F331F0A94D2F760E070E0CB01D4FF43
:102470000FC06FE070E080E090E004C0660F771F4F
:10248000881F991F4A95D2F7609570958095909511
:10249000C695C695C370602B712B822B932BC230CF
:1024A00049F058F4C13019F00E94D9162BCF0E9480
:1024B000C71628CF0E94EB1625CF0E94C51622CF43
:1024C0008695112311F08C2F8170882309F41ACF7F
:1024D0004D2F429546954770440F440F0D2F0F70B6
:1024E00010E030E020E0042E04C0000F111F221F76
:1024F000331F0A94D2F760E070E0CB01D4FF0FC025
:102500006FE070E080E090E004C0660F771F881FE6
:10251000991F4A95D2F76095709580959095C695CC
:10252000C695C370602B712B822B932BC23049F060
:1025300058F4C13019F00E949E17E4CE0E948C1707
:10254000E1CE0E94B017DECE0E940117DBCECF7025
:10255000112329F08C2F0E9427178D2F1DCF8D2F2F
:102560000E9418118C2F0E944817CCCED23F89F1BF
:1025700060F4D03FC9F0D13F29F1112309F442C0E2
:102580000111A8CE8C2F8F7121C0D33F39F1D43FD8
:10259000A1F7112369F1CF718C2F0E94271763E0F7
:1025A0008C2F0E942019AECE112341F0053008F087
:1025B000A9CE8C2F8F710E946B17A4CE063008F025
:1025C000A1CEF7CF8C2F8F71112369F20E942717AC
:1025D00099CE8C2F8F711123C9F3C5CF112329F008
:1025E0008C2F8F710E9412178DCE0E940D178ACEEC
:1025F00081E00E943519023008F484CE82E00E9406
:10260000351980CE002359F0D93309F0F4CE8FEF7D
:1026100097EEE3E081509040E040E1F7EACE8C2F66
:102620008F71A1CF11116ECECF70C230B1F040F4D6
:10263000CC2381F0C13009F065CE0E94F60C62CE49
:10264000C43089F068F080E0C53009F05BCE0E94AC
:10265000BD0D58CE0E94C30C55CE0E94630D52CEC4
:102660000E947F0D4FCE83E0F2CFDF91CF911F917B
:102670000F91FF90EF90DF90CF90BF9008950F9350
:102680001F93CF93DF93EC018B819C81892B29F0E1
:102690008881998189238F3F29F4DF91CF911F9100
:1026A0000F910895CE010E94B6068823B1F3688188
:1026B00079818A810E9462188C010E94C2170E944F
:1026C000C416B801CE01DF91CF911F910F910C94E8
:1026D0001F110E94CB180E94CE180E94EA1890E0A9
:1026E00080E00E94EA0E90E080E00C94000F0E94CF
:1026F00094180C9469130E94BB180C947713E92F5B
:10270000E295EF70E250EE3070F4F0E0E354F04DFB
:102710000C941D2C803F19F020F4883E20F481E0B9
:102720000895843FE1F380E00895883EC0F3813F3F
:10273000D1F7F5CF93FB882780F908950E945818A8
:102740000C947F13CF93DF9300D000D00F92CDB7BE
:10275000DEB70F900F900F900F900F90DF91CF91F9
:102760000895CF93DF9300D000D000D0CDB7DEB76F
:1027700026960FB6F894DEBF0FBECDBFDF91CF9186
:1027800008951F93CF93DF93C091430116E080918A
:1027900044018C1304C0DF91CF911F910895D0E0C4
:1027A0001C9FF0011D9FF00D1124EB5BFE4F40813B
:1027B000518162817381848195810E94B113219638
:1027C000C770E5CF40917501509176016091770116
:1027D000709178018091790190917A010C94B113F4
:1027E0001F93CF93DF9380917A01807FC1F4809112
:1027F00077018823A1F080914301C0914401609149
:102800007501709176014091780150917901D62F30
:10281000D723DA01A095B09516E0C81304C0DF9164
:10282000CF911F91089590E04115510511F0DF3FC0
:1028300031F401968770F1CF2A0F3B1F17C0189F04
:10284000F001199FF00D1124EB5BFE4F218127133E
:10285000F0CF20812613EDCF22812111EACF2381F1
:1028600034812417350740F3241B350B283C3105F0
:1028700000F720917A012F70206120937A0126E0E1
:10288000289FF001299FF00D1124E65BFE4F808107
:102890008F708061808385E791E00E943F13DF9114
:1028A000CF911F910C94C113BF92CF92DF92EF9200
:1028B000FF920F931F93CF93DF93CDB7DEB761974E
:1028C0000FB6F894DEBF0FBECDBF8C0185E0F801D6
:1028D000DE011D9601900D928A95E1F7D8014C9189
:1028E00011965C9111971296EC9012978091780155
:1028F00090917901009709F47FC120917501309181
:102900007601622F63236F3F09F476C11396CD9051
:10291000DC90B0907701BB2009F411C1C816D9062C
:10292000D0F1F601E81BF90BCF01FF24F394883CAA
:10293000910508F0F12C80917A01982F907FFF206B
:1029400009F4B8C091117FC0FE2C351329C024139F
:1029500027C0E11025C08F70806180937A010E94AA
:10296000E21385E791E00E943F1380917A01D8013C
:1029700015968C938F2D61960FB6F894DEBF0FBE1F
:10298000CDBFDF91CF911F910F91FF90EF90DF901E
:10299000CF90BF900895809590958C0D9D1DC5CFCB
:1029A000CD2829F0852F84238F3F09F041C180E095
:1029B000B82FB170DB2E80FF3CC080914301209185
:1029C000440136E0821315C04D875E878D859E8554
:1029D0000E945818292F22952F702230F0F02430B1
:1029E00018F59F70F1F0F8019581907FD1F4D12C0A
:1029F0001EC090E0389FF001399FF00D1124EB5B71
:102A0000FE4F6181651306C06081641303C062815B
:102A1000E6120FC001968770D5CF9F7011F0882302
:102A200031F3805E883018F3C8010E943F13FD2CFB
:102A3000A1CFEE2009F49ECF80917A01816080932E
:102A40007A01F12C97CF351306C0241304C0D801A6
:102A5000EE2009F49AC04D875E878D859E850E9481
:102A60009E13882319F1EE2009F180917A018032BA
:102A700070F0209175013091760138872F83198687
:102A8000DB86CA868C87CE0107960E943F1386E0BC
:102A9000F801A5E7B1E001900D928A95E1F70E9457
:102AA000F0130E94E213FF24F39464CFC8010E9444
:102AB0003F13F9CF911113C07C2DD98AC88A6E2D8E
:102AC00089890E94A21385E791E00E943F1386E066
:102AD000E5E7F1E0DF011D928A95E9F763C0351360
:102AE00012C0241310C0E1100EC0F8018583C80184
:102AF0000E943F13E5E7F1E086E0DF011D928A9531
:102B0000E9F7FB2C37CF4D875E878D859E850E9428
:102B10009E13882359F2EE2049F280917A01803287
:102B200008F4B5CF20917501309176013A8329835D
:102B30001B82DD82CC828E83CE010196A6CFC81681
:102B4000D90698F1F601E81BF90BCF01F12C883C6E
:102B5000910508F049C0FE2CEE2009F4A7CF3513EB
:102B600032C0241330C080917A0180FD23C0982F99
:102B7000907F01F1D80115968C931597903F39F00D
:102B8000982F907F905F8F70892B15968C93C8013A
:102B90000E943F1386E0F801A5E7B1E001900D9295
:102BA0008A95E1F70E94E213E5CE809590958C0D11
:102BB0009D1DCCCF86E0F801A5E7B1E001900D9214
:102BC0008A95E1F7D7CE4D875E878D859E850E94D9
:102BD0009E1381115CCF80917A01816080937A018C
:102BE000C8010E943F13C6CE7C2DD98AC88A6E2D9B
:102BF00089890E94A2136BCFEE2009F457CF4D872D
:102C00005E878D859E850E949E13F82E882309F489
:102C10004DCF86E0F801A5E7B1E001900D928A95CD
:102C2000E1F785E791E00E9430100E94F013BACFDF
:102C300081E08E25BDCE1F93CF93DF93CDB7DEB756
:102C40002C970FB6F894DEBF0FBECDBF4F835887C9
:102C500069877A878B879C87CE0107960E945414D8
:102C6000882369F08A859B85892B39F04F815885A7
:102C7000842F85238F3F09F071C016E05FC086E086
:102C8000FE013796DE01119601900D928A95E1F7CB
:102C90008A859B85892B89F388859F8189238F3F2E
:102CA00061F32091440130E0C901019687709927B2
:102CB000409143014817190671F40E947B1310924A
:102CC00044011092430186E0E5E7F1E0DF011D9247
:102CD0008A95E9F7D2CF96E0929FD001939FB00DED
:102CE0001124AB5BBE4FFE01319601900D929A9577
:102CF000E1F7809344010E94C113BFCF819FC001BF
:102D000011248B5B9E4F0E9454148823E9F0E091BC
:102D100043011E9FF0011124EB5BFE4F4081518166
:102D200062817381848195810E94B11380914301F6
:102D300090E0019687709927809343018091430129
:102D4000909144018913DACF2C960FB6F894DEBF28
:102D50000FBECDBFDF91CF911F91089569857A8510
:102D60008B859C850E94B11388CF08950C94B5166D
:102D70000E94B6166093890170938A0180938B013B
:102D800090938C010C94691308950C94B8160F93CA
:102D90001F930091890110918A0120918B0130913C
:102DA0008C01602B712B822B932B1F910F910C9414
:102DB000B8160F931F930091890110918A012091F9
:102DC0008B0130918C0160237123822393231F9107
:102DD0000F910C94B8160F931F93009189011091D5
:102DE0008A0120918B0130918C0160277127822705
:102DF00093271F910F910C94B8160C94B5160C9450
:102E0000FD160E94FF1660938501709386018093E2
:102E10008701909388010C94691360E070E0CB0106
:102E20000C9401170F931F9341E050E060E070E0B5
:102E30008A019B0104C0000F111F221F331F8A95B6
:102E4000D2F7C901B8011F910F910C9401170F938C
:102E50001F9341E050E060E070E004C0440F551F54
:102E6000661F771F8A95D2F7809185019091860120
:102E7000A0918701B09188018A019B01082B192B31
:102E80002A2B3B2BC901B8011F910F910C940117FC
:102E90000F931F9341E050E060E070E004C0440FE6
:102EA000551F661F771F8A95D2F7CB01BA0160952F
:102EB00070958095909500918501109186012091E3
:102EC00087013091880160237123822393231F910E
:102ED0000F910C9401170F931F9341E050E060E0B5
:102EE00070E004C0440F551F661F771F8A95D2F704
:102EF0008091850190918601A0918701B091880110
:102F00008A019B01082719272A273B27C901B801F5
:102F10001F910F910C9401170F931F93009185013E
:102F2000109186012091870130918801602B712BCF
:102F3000822B932B1F910F910C9401170F931F93CA
:102F400000918501109186012091870130918801BF
:102F500060237123822393231F910F910C940117F7
:102F60000F931F9300918501109186012091870195
:102F70003091880160277127822793271F910F9135
:102F80000C9401170895990F990F890F982F977036
:102F900041E001C0440F9A95EAF78695869586959B
:102FA00095E0899FF0011124E558FE4F30E020E0C4
:102FB00070E05191DF011197CB01022E02C096956E
:102FC00087950A94E2F78170819585278423852768
:102FD0008C932F5F3F4F2530310559F70895990F96
:102FE000990F890F982F977086958695869525E07D
:102FF000829FF0011124E558FE4F50E040E080E050
:10300000219130E0092E02C0369527950A94E2F707
:1030100021703327042E01C0220F0A94EAF7822B75
:103020004F5F5F4F4530510559F70895BF92CF92DA
:10303000DF92EF92FF920F931F93CF93DF938C0158
:10304000C0908501D0908601E0908701F0908801C2
:103050008091890190918A01A0918B01B0918C019E
:10306000C82AD92AEA2AFB2ACFE1D0E0BC2ED70110
:10307000C6010C2E04C0B695A795979587950A941E
:10308000D2F780FD0EC0219788F7B12C8B2DDF91F0
:10309000CF911F910F91FF90EF90DF90CF90BF9055
:1030A0000895B8018C2F0E948D08019761F3EECF2F
:1030B000CF93DF93EC010E941618BE01DF91CF91F0
:1030C0000C948D081F93CF93DF93EB0190914201F5
:1030D000992331F0CB01DF91CF911F910C945818B7
:1030E000882379F0CB010E941618182F682FCE0183
:1030F0000E94C317BE01812FDF91CF911F910C94C5
:103100008D08CB010E94EF17182FF4CF682F809104
:103110000001909101010C94501A682F80910001D8
:10312000909101010C94521A80910001909101013B
:103130000C94541A80918D018595859585950895F7
:1031400080918D018770089590918D01977081E035
:1031500009F480E008958091990108959091990172
:10316000892B8093990108958095909199019823D6
:103170009093990108951092990108959091980162
:10318000892B8093980108958095909198019823B8
:1031900090939801089510929801089510929701C4
:1031A000089580918E01089508950C94D4189091FB
:1031B0008E01981721F080938E010C94D5180895F4
:1031C00080918E01882329F010928E0180E00C946A
:1031D000D5180895E0910001F091010180919901C5
:1031E0008083E0910001F09101018081909198012C
:1031F000892B8083E0910001F09101018081909101
:103200009701892B808390918E01992381F0E09121
:103210000001F09101018081892B80838091000160
:10322000909101010E94171A81110E94E01880916B
:103230000001909101010C949E0E08950C941D19AB
:1032400098E0899F90011124622B60938D010E9468
:10325000271780918D018595859585950C941E196C
:1032600010928D0180E00C941E1990918D01809533
:10327000892380938D01282F277071F4282F082E21
:10328000000C330B9217130639F0859585958595BB
:103290000E9448170C943019089590932701809349
:1032A00026010895829590E09C01220F331F220F82
:1032B000331F2C7C95958795959587958373282B3F
:1032C00030E0C901880F991F8A7A359527952575B1
:1032D000822B089590E080E00E94732F21E08C3EC5
:1032E0009E4F09F020E0822F089582E090E00C9438
:1032F0006B2F83E090E00C946B2FCF9384E090E0F1
:103300000E946B2FC82F81E290E00E946B2F982FB4
:103310008C2FCF910895CF93C92F682F84E090E030
:103320000E94792F6C2F81E290E0CF910C94792F3D
:1033300086E090E00C946B2F682F86E090E00C9470
:10334000792FAB01BC018FE090E00C948B2FAB0187
:10335000BC0183E190E00C948B2F60E070E0CB0126
:103360000C94A71960E070E0CB010E94A1190C94A5
:10337000AD196CEE7EEF90E080E00E94972F60E048
:1033800082E090E00E94792F60E083E090E00E946C
:10339000792F1092890110928A0110928B0110925C
:1033A0008C0160E084E090E00E94792F60E081E28F
:1033B00090E00E94792F60E085E090E00E94792FF4
:1033C00060E086E090E00E94792F6FEF87E090E068
:1033D0000E94792F40E050E0BA0188E090E00E941E
:1033E0008B2F60E08DE090E00E94792F40E050E06C
:1033F000BA0188E190E00E948B2F60E087E190E0C5
:103400000E94792F40E050E0BA018CE190E00E94E8
:103410008B2F60E080E290E00E94792F0C94B2192B
:103420000C94B919682F8EE090E00C94792F9C01D0
:103430002E5F3F4FAC01485F5F4F80E02417350798
:1034400009F40895F90191919F019923B9F38F5FD0
:10345000F5CF9C01FC0132969FEF80E04191461729
:1034600051F09F3F19F4411101C0982F8F5F8630B2
:10347000A9F79F3F09F40895290F311D97FD3A954B
:10348000F90162830895FC01329608962191261372
:1034900003C0DF0111971C92E817F907B9F70895E7
:1034A0000C94291A0C94431A029626E0FC011192FE
:1034B0002A95E9F7089508950C945B1A0E947B13EE
:1034C0000E94A70C0E94920E0E949E060C945C1A09
:1034D0001F921FB61F9211248F939F93AF93BF9398
:1034E00080919B01811113C08091510390915203EF
:1034F000A0915303B09154034196A11DB11D809337
:10350000510390935203A0935303B0935403BF917C
:10351000AF919F918F911F901FBE1F90189582E0D1
:1035200084BD93E095BD9AEF97BD80936E0008959A
:103530002FB7F8948091510390915203A0915303B7
:10354000B09154032FBF08952FB7F89460915103A1
:103550007091520380915303909154032FBF0895AB
:10356000CF92DF92EF92FF920F931F932FB7F894B1
:103570004091510350915203609153037091540351
:103580002FBF6A017B01EE24FF248C0130E020E094
:10359000C016D106E206F30650F0481B590BCA01CB
:1035A0001F910F91FF90EF90DF90CF9008954150C1
:1035B0005109F3CF78941F921FB61F9211248F9355
:1035C0009F93AF93BF938091510390915203A09129
:1035D0005303B09154030196A11DB11D8093510373
:1035E00090935203A0935303B0935403BF91AF91B0
:1035F0009F918F911F901FBE1F901895F89481E0A6
:103600008093E00080E28093D800E9ECF0E0108243
:103610008FE19EE40197F1F700C000001DBA1092FF
:1036200068001CBC10BE1FBA10927A0010926E0087
:1036300010926F0010927000109271001082109220
:10364000BC0011B814B817B81AB81DB810BA12B81F
:1036500015B818B81BB81EB811BA0C9400FE08951E
:103660000E946A19811102C00E94101A0E947519E5
:1036700080939A010E947D1990935603809355037D
:103680000E947919682F70E090E080E00C94C516D4
:10369000CF93C82F1F928F9382EB91E09F938F93CC
:1036A0000E943D0661E070E080E090E004C0660F9B
:1036B000771F881F991FCA95D2F70E94C5160F90D1
:1036C0000F900F900F90CF910C947B13CF93DF93BB
:1036D0008B3109F445C208F0DCC18B3009F403C218
:1036E00008F0A6C1863009F411C248F4853009F407
:1036F000DEC18AE796E00E94A40580E017C2873009
:1037000009F417C28830A9F789E197E00E94A4055F
:103710008AE696E00E94A4050E9479191F928F9371
:1037200087E696E09F938F930E943D0685E696E09C
:103730000E94A4050E947519C82F82E596E00E9498
:10374000A4051F92CF938DE496E09F938F930E94E0
:103750003D068BE496E00E94A40581E496E00E9479
:10376000A4058C2F81701F928F938EE396E09F9318
:103770008F930E943D068CE396E00E94A40582E3AD
:1037800096E00E94A405C1FB882780F91F928F93C1
:103790008FE296E09F938F930E943D068DE296E024
:1037A0000E94A40581E296E00E94A405C2FB88273E
:1037B00080F91F928F938EE196E09F938F930E94E2
:1037C0003D068CE196E00E94A40583E196E00E940C
:1037D000A405C3FBCC27C0F91F92CF9380E196E0EC
:1037E0009F938F930E943D068EE096E00E94A40571
:1037F0000E947D19EC018AEF95E00E94A405DF93F9
:10380000CF9385EF95E09F938F930E943D0683EFC2
:1038100095E00E94A4058AED95E00E94A4058C2FF6
:1038200081701F928F9387ED95E09F938F930E94F5
:103830003D068DB79EB780960FB6F8949EBF0FBE1B
:103840008DBF85ED95E00E94A4058EEB95E00E946A
:10385000A405C1FB882780F91F928F938BEB95E01D
:103860009F938F930E943D0689EB95E00E94A405EB
:1038700087EA95E00E94A4058D2F81701F928F9397
:1038800084EA95E09F938F930E943D0682EA95E03B
:103890000E94A40580E995E00E94A405D695D17008
:1038A0001F92DF938DE895E09F938F930E943D06D2
:1038B0008BE895E00E94A40589E795E00E94A405A5
:1038C000C2FB882780F91F928F9386E795E09F932C
:1038D0008F930E943D0684E795E00E94A40582E64E
:1038E00095E00E94A405C3FB882780F91F928F935F
:1038F0008FE595E09F938F930E943D068DE595E0BF
:103900000E94A40583E595E00E94A405C4FB8827D6
:1039100080F91F928F9380E595E09F938F930E948B
:103920003D068EE495E00E94A4058CE395E00E949C
:10393000A405C5FB882780F91F928F9389E395E042
:103940009F938F930E943D0687E395E00E94A40514
:103950008BE195E00E94A405C6FB882780F91F92A1
:103960008F9388E195E09F938F930E943D068DB7DA
:103970009EB780960FB6F8949EBF0FBE8DBF86E1AE
:1039800095E00E94A4058EE095E00E94A405C7FB87
:10399000CC27C0F91F92CF938BE095E09F938F9334
:1039A0000E943D0689E095E00E94A4050E949819B6
:1039B000C82F82EF94E00E94A4051F92CF938DEE52
:1039C00094E09F938F930E943D068BEE94E00E94BB
:1039D000A40581EE94E00E94A4058C2F81701F92B3
:1039E0008F938EED94E09F938F930E943D068CED14
:1039F00094E00E94A40583ED94E00E94A405C6957E
:103A0000C695C6951F92CF9380ED94E09F938F93B8
:103A10000E943D068EEC94E00E94A4058DB79EB7EF
:103A200040960FB6F8949EBF0FBE8DBF81E07EC05A
:103A3000803109F4ADC080F48E3009F05ACE9091F7
:103A40009A01892F8B7F92FF846080939A0182FF75
:103A50009CC085EA96E090C0863109F4A9C08931FE
:103A600009F047CE81E093E00E94A40588EE92E041
:103A70000E94A4058BEA92E00E94A40589E792E0E7
:103A80000E94A4058CE492E00E94A40580E292E0EA
:103A90002CC08A32A1F1E8F4873269F128F48E3122
:103AA00008F427CE8D5128C0893209F022CE0E9419
:103AB0007B1388EE96E00E94A4059FEF23ED80E340
:103AC000915020408040E1F700C000000E94FE1AA3
:103AD000ADCF833468F48A3308F0A1C0853359F040
:103AE000883309F006CE8BE293E00E94A4059ECFB6
:103AF000833409F0FECD80E00E94481B97CF88E018
:103B000097E00E94A4050E94101A90CF80919A011C
:103B1000807F80939A0180E193E00E94A40584E075
:103B200097E00E94A40581E080939C01DF91CF91F2
:103B3000089590919A01892F8E7F90FF81608093E4
:103B40009A0180FF03C08CED96E0CFCF8FEC96E01A
:103B50000E94A40580919A01817F80939A0166CF8B
:103B600090919A01892F8D7F91FF826080939A01B5
:103B700081FF08C082EC96E00E94A40580919A0122
:103B80008160EBCF84EB96E0B0CF85E996E0ADCFD6
:103B900090919A01892F877F93FF886080939A0183
:103BA00083FF03C089E896E0E7CF8CE796E09DCFDE
:103BB00082E192E00E94A4050E94920E1F928F93D0
:103BC00088EF91E09F938F930E943D0680910C01B6
:103BD0001F928F9381EE91E09F938F930E943D06F9
:103BE0008091A9011F928F938EEC91E09F938F9308
:103BF0000E943D060E94A41A9F938F937F936F9318
:103C000087EB91E09F938F930E943D068DB79EB7FF
:103C100042960FB6F8949EBF0FBE8DBF07CF895353
:103C20006BCF80E008950C94111ECF93C82F809124
:103C30009C01882331F0813099F010929C0180E042
:103C40000DC00E94AB188232D1F78C2F0E94111E3A
:103C5000811119C08C2F0E94661B8170CF9108952D
:103C60000E94AB18823289F38C2F0E94131E81119F
:103C700019C0C431C9F050F4CB3061F08CEA91E046
:103C80000E94A40513C081E090E0E7CFC93261F043
:103C9000C833A1F780E193E00E94A4058EEA91E089
:103CA0000E94A40581E0D9CF10929C0180E0D5CF7D
:103CB0008091A801089508959FB7F89410929F01EC
:103CC0009FBF90915B03943009F048C02091E900B8
:103CD0002F703091EC00932F917030FD90E8922B73
:103CE00023E02093E9002091EB0020FF34C02091D5
:103CF000EE0027FF30C020919D01222321F020916A
:103D0000E80025FF28C010929D0126E03091E800D0
:103D100035FF14C08093F1008091E80085FD27C035
:103D20008091E80080FFFCCF8091E8008E7780933F
:103D3000E8009F709093E90080E0089530915B0364
:103D4000343049F43091EB0035FD05C0215041F489
:103D500081E080939D019F709093E9008FEF08951B
:103D6000EFE9FFE03197F1F700C00000CFCF8FB748
:103D7000F89421E020939F018FBFDBCFEF92FF9259
:103D80001F93CF93DF9300D00F92CDB7DEB77C01A6
:103D90000E945221182F8DEF810F823060F570E064
:103DA00060E0C7010E94CA2B143039F584E0898392
:103DB000FB82EA8282E08093E9008FEF9091E80035
:103DC000815095FD06C095ED9A95F1F7000081119F
:103DD000F5CF8091E80085FF10C050E040E063E03F
:103DE00070E0CE0101960E9459218091E8008E7703
:103DF0008093E80002C01230C9F20F900F900F902C
:103E0000DF91CF911F91FF90EF900895CF93DF93B3
:103E100000D00F92CDB7DEB720915B03243031F58F
:103E200023E02983805891099B838A8382E08093D1
:103E3000E9008FEF9091E800815095FD06C095ED67
:103E40009A95F1F700008111F5CF8091E80085FF88
:103E50000DC050E040E063E070E0CE0101960E94AA
:103E600059218091E8008E778093E8000F900F90A1
:103E70000F90DF91CF9108951F93CF93DF93EC01C3
:103E80000E945221182F8DEF810F823088F546E075
:103E9000BE016E5F7F4F88810E94572B143051F511
:103EA00081E08093E9008FEF9091E800815095FDCB
:103EB00006C095ED9A95F1F700008111F5CF80913C
:103EC000E80085FF17C050E040E068E070E0CE01F8
:103ED0000E9459218091E8008E778093E80088E065
:103EE000FE01A0EAB1E001900D928A95E1F702C0CF
:103EF0001230B1F2DF91CF911F91089585E497E0E0
:103F00000E94A40580915A03811109C00E94E722F2
:103F10000E9449238091E20084608093E20008952A
:103F200081E497E00E94A40510925A0308958DE35E
:103F300097E00C94A40589E397E00C94A40585E32D
:103F400097E00E94A4050C945E1A20919E012F5FB9
:103F5000822F62E30E94FD2B992319F020939E018A
:103F6000089510929E0180919F018823F1F0809125
:103F70005B038430C1F49091E9009F702091EC00C4
:103F8000822F817020FD80E8892B93E09093E900D7
:103F90009091EB0090FF04C09091EE0097FD08C057
:103FA0008F708093E90010929F0108951092F100A4
:103FB0009091E80095FDFACF9091E80090FFF0CF46
:103FC0009091E8009E779093E800EACF42E061ECA0
:103FD00081E00E94632242E261EC82E00E9463225F
:103FE00042E261EC83E00C94632280915D038330B4
:103FF00009F45FC030F48130C1F1823009F49BC014
:1040000008958A3009F487C08B3009F46DC0893077
:1040100009F04EC080915C03813209F049C0809163
:10402000600390916103029708F042C08091E8001C
:10403000877F8093E8008091E80082FF35C08091FF
:10404000F2009091F300029729F48091F1008B7FA8
:10405000813021F48091F1008093A8018091E800E3
:104060008B778093E8000C94972280915C03813ACF
:10407000F9F48091E800877F8093E80080916003E5
:1040800090916103892B61F468E080EA91E070E02F
:104090000E94A8218091E8008B778093E800089522
:1040A00060E090E080E0F3CF80915B038111C3CFAB
:1040B000089580915C03813AD9F7809160039091D3
:1040C0006103892BA9F78091E800877F8093E8003E
:1040D0008091E80080FFFCCF80910C018093F1007B
:1040E0008091E8008E77BDCF80915C03813201F72B
:1040F0008091600390916103892BD1F68091E80053
:10410000877F8093E8000E94972280915E038093CE
:104110000C010C947B1380915C03813249F68091F1
:10412000E800877F8093E8000E94972280915F03D8
:104130008093A901089580915C03813A09F0B8CF7A
:104140008091E800877F8093E8008091E80080FFFD
:10415000FCCF8091A901C2CF84B7877F84BF0FB6FF
:10416000F894A89580916000886180936000109217
:1041700060000FBE80E880936100109261000E9491
:10418000240F0E94E7220E9449238091E20084606C
:104190008093E2008CE59EE10E944D1978940E9484
:1041A000D7250E942C0F82E091E00E948D0E84E2C0
:1041B00097E00E94A4050E945E0F0E94C12AFBCFD7
:1041C0000C94E220292F33272330310521F168F4A4
:1041D0002130310509F449C02230310509F44AC0C3
:1041E00090E080E030E020E029C02132310581F10B
:1041F00022323105A9F76330710590F7FB01EE0F0C
:10420000FF1FE65EFE4F20813181695E7E4FFB011C
:10421000808190E013C099278130910599F0009733
:1042200041F08230910589F00397D1F6E9E4F7E097
:1042300002C0EFE7F7E0849190E09F01FA0131833B
:1042400020830895E9E6F7E0F6CFEFE4F7E0F3CF57
:104250006330710528F6660F771FFB01E05EFE4FA5
:104260002081318189E090E0E9CF82E190E02EED7C
:1042700037E0E4CF8BE590E023E837E0DFCF089527
:10428000CF93C82F0E943F21C0930D01CF91089575
:1042900080915B03843021F00E942E2A83E00895F0
:1042A00082E0089580910D01811102C00C94482193
:1042B0000895AF92BF92CF92DF92FF920F931F9318
:1042C000CF93DF936C01EB018A010E94B622F82E96
:1042D000811123C00115110539F0F8018081918108
:1042E000C81BD90BC80ED91EB12CA12C2097A9F040
:1042F0008091E80085FD22C08091E8008E77809350
:10430000E80001151105A1F0F80180819181A80E46
:10431000B91EB182A08285E0F82E8F2DDF91CF915A
:104320001F910F91FF90DF90CF90BF90AF900895B5
:104330000E94B6228823D1F2F82EEFCFF6018191A8
:104340006F018093F1002197FFEFAF1ABF0ACECF24
:10435000FC01809162039091630386179707A0F098
:104360006115710529F49091E8009E779093E8001B
:1043700090E06115710551F4911108C08091E80039
:1043800082FF33C080E00895BC01F2CF80915B03CF
:104390008823B9F18530B9F18091E80083FD2FC001
:1043A0008091E80082FDEACF8091E80080FFE1CFB4
:1043B0002091F2003091F3006115710519F0283059
:1043C000310558F091E02830310509F090E0209156
:1043D000E8002E772093E800CCCF81918093F10004
:1043E000615071092F5F3F4FE7CF80915B038823B6
:1043F00041F0853041F08091E80083FFBFCF81E03C
:10440000089582E0089583E00895FC01809162039D
:104410009091630386179707A0F06115710529F441
:104420008091E8008E778093E80090E06115710537
:1044300051F4911108C08091E80082FF34C080E0FF
:104440000895BC01F2CF80915B038823C1F18530D0
:10445000C1F18091E80083FD30C08091E80082FDC9
:10446000EACF8091E80080FFE1CF2091F200309107
:10447000F3006115710519F02830310558F091E00D
:104480002830310509F090E08091E8008E77809324
:10449000E800CCCF84918093F1003196615071098E
:1044A0002F5F3F4FE6CF80915B03882341F085303B
:1044B00041F08091E80083FFBECF81E0089582E063
:1044C000089583E00895982F973028F08F70809397
:1044D000E90081E008959093E900242F762F50E0C1
:1044E000981731F07091EC002091ED005091F000A0
:1044F00021FD02C09F5FE8CF3091EB003E7F3093FB
:10450000EB003091ED003D7F3093ED003091EB00FA
:1045100031603093EB007093EC002093ED005093EA
:10452000F0002091EE0027FDE5CF80E00895809116
:104530005C0387FF13C08091E80082FF06C0809172
:10454000E8008B778093E80004C080915B038111C1
:10455000F2CF089580915B038823D9F38091E8001E
:1045600080FFF8CF8091E8008E77ECCF2091E400B7
:104570003091E50095E6A9012091EC00822F817031
:1045800020FF06C08091E80080FF06C080E008950B
:104590002091E80022FD1AC080915B03882389F0F6
:1045A000853089F08091EB0085FD0FC02091E400FB
:1045B0003091E50042175307F9F29150E1F684E09B
:1045C000089582E0089583E0089581E008950E94AF
:1045D00058230E946023E0EEF0E0808181608083B8
:1045E000E8EDF0E080818F77808319BCA7EDB0E023
:1045F0008C918E7F8C9380818F7E808310925A0362
:1046000008950F931F93CF93DF930E9458230E9426
:104610006023C8EDD0E088818F77888388818068A7
:10462000888388818F7D8883E7EDF0E080818068D2
:10463000808319BC10925B031092570310925903A8
:104640001092580300EE10E0F80180818B7F808388
:1046500088818160888342E060E080E00E9463227C
:10466000E1EEF0E080818E7F8083E2EEF0E08081F9
:1046700081608083808188608083F80180818E7F63
:104680008083888180618883DF91CF911F910F9112
:104690000895E8EDF0E080818F7E8083E7EDF0E023
:1046A00080818160808381E080935A030C94012390
:1046B000E8EDF0E080818C7F80831092E200089525
:1046C0001092DA001092E10008951F920F920FB637
:1046D0000F9211240BB60F922F933F934F935F933A
:1046E0006F937F938F939F93AF93BF93EF93FF93BA
:1046F0008091E10082FF0BC08091E20082FF07C041
:104700008091E1008B7F8093E1000E94A51F809142
:10471000DA0080FF19C08091D80080FF15C0809119
:10472000DA008E7F8093DA008091D90080FF98C0F4
:1047300084E189BD86E189BD09B400FEFDCF81E039
:1047400080935B030E947E1F8091E10080FF19C06F
:104750008091E20080FF15C08091E2008E7F8093FF
:10476000E2008091E20080618093E2008091D800B5
:1047700080628093D80019BC85E080935B030E941F
:104780009B1F8091E10084FF2BC08091E20084FF99
:1047900027C084E189BD86E189BD89B5982F9170D4
:1047A00080FFFBCF8091D8008F7D8093D8008091CF
:1047B000E1008F7E8093E1008091E2008F7E809304
:1047C000E2008091E20081608093E20080915703D3
:1047D000882309F44BC084E080935B030E949F1FF1
:1047E0008091E10083FF29C08091E20083FF25C012
:1047F0008091E100877F8093E10082E080935B03FA
:10480000109257038091E1008E7F8093E1008091A8
:10481000E2008E7F8093E2008091E20080618093CD
:10482000E20042E060E080E00E9463228091F000BC
:1048300088608093F0000E94971FFF91EF91BF91D5
:10484000AF919F918F917F916F915F914F913F9128
:104850002F910F900BBE0F900FBE0F901F901895C9
:1048600019BC10925B030E94901F6ECF8091E300F1
:1048700087FD93E090935B03B1CF1F920F920FB629
:104880000F9211240BB60F922F933F934F935F9388
:104890006F937F938F939F93AF93BF93CF93DF9348
:1048A000EF93FF93D091E900DF708091EC00C82F67
:1048B000C17080FDC0E81092E9008091F000877F10
:1048C0008093F00078940E9485241092E9008091F2
:1048D000F00088608093F000CD2BCF70C093E9008A
:1048E000FF91EF91DF91CF91BF91AF919F918F9108
:1048F0007F916F915F914F913F912F910F900BBEE0
:104900000F900FBE0F901F9018951F93CF93DF93BA
:10491000CDB7DEB7AA970FB6F894DEBF0FBECDBFF6
:104920008CE593E02091F100FC012193CF01F3E0AD
:1049300084369F07B9F70E94F51F8091E80083FF36
:104940001EC180915C0390915D039A3008F017C1FD
:10495000E92FF0E0E553F04D0C941D2C803899F0D0
:10496000823809F00CC1809160038F70873008F0A5
:1049700006C18093E9008091EB0085FB882780F9D0
:104980001092E90006C0809158039091590391114B
:1049900082609091E800977F9093E8008093F10007
:1049A0001092F1008091E8008E77E5C0882309F429
:1049B000D3C0823009F0E3C080915E038111D6C07C
:1049C000809160038F702FEF280F263008F0D7C03A
:1049D0008093E9002091EB0020FFC8C0933031F4B0
:1049E0008091EB0080628093EB00C0C09091EB005F
:1049F00090619093EB0021E030E001C0220F8A9596
:104A0000EAF72093EA001092EA008091EB008860B8
:104A1000EACF8111B4C010915E031F778091E3004B
:104A20008078812B8093E3008091E800877F8093DA
:104A3000E8000E9497228091E80080FFFCCF8091DF
:104A4000E30080688093E30082E0111183E08093AB
:104A50005B0395C08058823008F091C080915E035E
:104A600090915F038C3D23E09207A1F583E08A8358
:104A70008AE289834FB7F894DE01139620E03EE086
:104A800051E2E32FF0E050935700E49120FF03C080
:104A9000E295EF703F5FEF708E2F90E0EA30C0F04C
:104AA000C7968D939D932F5F243159F74FBF809107
:104AB000E800877F8093E8006AE270E0CE0101960B
:104AC0000E94A8218091E8008B778093E80057C06E
:104AD000C096E7CF6091600370916103AE014F5FB4
:104AE0005F4F0E94E020BC01892B09F448C09091DF
:104AF000E800977F9093E80089819A810E940522BF
:104B0000E1CF8038E1F58091E800877F8093E8006D
:104B1000809157038093F10045CF811130C090916F
:104B20005E03923060F58091E800877F8093E80013
:104B3000909357030E94972280915703882311F086
:104B400084E005C08091E30087FDFACF81E0809387
:104B50005B030E94E61F13C080915E03813079F4ED
:104B600081E0933009F080E0809359031092E900CE
:104B70008091E800877F8093E8000E9497228091CF
:104B8000E80083FF0AC08091E800877F8093E800F7
:104B90008091EB0080628093EB00AA960FB6F894A8
:104BA000DEBF0FBECDBFDF91CF911F910895CF9390
:104BB00080915B038823A1F0C091E900CF709091B0
:104BC000EC00892F817090FD80E8C82B1092E900DD
:104BD0008091E80083FD0E948524CF70C093E90096
:104BE000CF91089596E890937A00982F90729068EC
:104BF00090937B008F7190910E01892B80937C00A4
:104C000086EC80937A0080917A0086FDFCCF8091BB
:104C10007800909179000895883010F40C94F22572
:104C200090E080E00895662371F0FC01680F792F11
:104C3000711DE617F70738F41EBC0DB407FEFDCF53
:104C40008EB58193F6CF0895EF92FF920F931F9345
:104C5000CF93DF93EC018B010E94981A7C014D9950
:104C600012C085E08A95F1F70000C7010E94B01AD2
:104C700080179107A0F380E0DF91CF911F910F91F2
:104C8000FF90EF9008958091AA018CBD8091AB01B7
:104C90008DBD5C981EBC00000DB407FEFDCF8EB527
:104CA00088838E3F78F05C9A85E88A95F1F700005A
:104CB0005C98C7010E94B01A8017910758F380E0F2
:104CC0005C9ADACF63E0CE0101960E9413266B81D5
:104CD0006F77613120F4CE0104960E94132681E0A3
:104CE000EFCFEF92FF920F931F93CF93DF93EC01DF
:104CF0008B018091AA018CBD8091AB018DBD5C9828
:104D00000E94981A7C0188818EBD00000DB407FEB8
:104D1000FDCF8EB58E3FB9F45C9A85E88A95F1F7A0
:104D200000005C98C7010E94B01A8017910758F3E1
:104D300080E05C9ADF91CF911F910F91FF90EF90EF
:104D4000089581E0F6CFFE0131968B818F778D5FDC
:104D50008E0F9F2F911DE817F90798F721912EBD0F
:104D60000DB407FEFDCFF7CFDF92EF92FF920F93C6
:104D70001F93CF93DF93CDB7DEB764970FB6F89448
:104D8000DEBF0FBECDBFD82EE091B1018091B00142
:104D9000E81709F453C0F0E0EE0FFF1FE455FE4F93
:104DA000008111814D9B5FC033ECE32E3AE0F32E7E
:104DB00066E970E0CE0101960E9424268823F1F175
:104DC0008C8187FD2AC08091B1019091B001891733
:104DD00069F090E0FC01EE0FFF1FE455FE4F0081EB
:104DE00011810196817099278093B10180919A0178
:104DF00080FF13C00E94981A8017910768F10E94E3
:104E0000981A801B910B9F938F93FF92EF920E94B1
:104E10003D060F900F900F900F90DD2079F0E091FC
:104E2000B1018091B001E81749F0F0E0EE0FFF1FEB
:104E3000E455FE4F008111814D99BACF64960FB6AB
:104E4000F894DEBF0FBECDBFDF91CF911F910F91C0
:104E5000FF90EF90DF9008950E94981A00951095AA
:104E6000800F911FD0CFC8010E94B01A8D3291409F
:104E700028F380919A0180FF16C08091B001909133
:104E8000B101482F491B550B57FD1AC0891B1F92B2
:104E90008F9384E99AE09F938F930E943D060F9031
:104EA0000F900F900F908091B1019091B0018917F0
:104EB00029F290E00196817099278093B101BECFCD
:104EC0008E5FE4CF4F925F926F927F928F929F920C
:104ED000AF92BF92CF92DF92EF92FF920F931F9308
:104EE000CF93DF93CDB7DEB7A8970FB6F894DEBFA8
:104EF0000FBECDBF6C017B015A01522EFC01019007
:104F00000020E9F7CF0101973C01222381F0809135
:104F10009A0180FF0CC0DF92CF928BE09AE09F93C2
:104F20008F930E943D060F900F900F900F90E11409
:104F3000F10411F180E07EE3872E7AE0972E209134
:104F4000B0019091B1012917A9F081110EC0809193
:104F50009A0180FF0AC0DF92CF929F928F920E94A7
:104F60003D060F900F900F900F9081E00E94B426A5
:104F700081E0E5CFF701108240E1942E5AE0852EC2
:104F800060E9462EA3014C195D0941315105CCF071
:104F90009D8A1E8A8F8A488EF601DE015996892DD8
:104FA00001900D928A95E1F7B801CE0145960E94D5
:104FB0007126811102C0D12C68C0F0E1CF0ED11C46
:104FC000E1CF80E18D8B1E8A8AE08F8B842F8F77D3
:104FD000888F5527B601CE0149960E947A2CB801D8
:104FE000CE0145960E947126C82E882321F3AE0C6F
:104FF000BF1C8701E114F10409F064C00E94981AF3
:105000008C018091B00190E09C012F5F3F4F217097
:1050100033274091B101421304C080E00E94B426BE
:10502000F0CF880F991FFC01E455FE4F11830083D8
:105030002093B0010E94981ADD24D3948017910721
:1050400028F00817190741F4DC2C1FC09C01201B15
:10505000310B21303105C1F320919A0120FBFF244F
:10506000F0F820FF12C08017910738F1801B910BD8
:105070009F938F9381EF99E09F938F930E943D06BA
:105080000F900F900F900F90DF2C8D2DA8960FB6DC
:10509000F894DEBF0FBECDBFDF91CF911F910F916E
:1050A000FF90EF90DF90CF90BF90AF909F908F9048
:1050B0007F906F905F904F90089500951095800FAE
:1050C000911FD6CF6CE271E0CE0101960E9424269A
:1050D000811109C080919A0180FF6DCF88E29AE02A
:1050E0000E94A40568CF8981803219F0F7011082EF
:1050F00062CF8C818F77CA2CC01A8C1508F4C82E09
:10510000CC2051F0D12CA601BE016B5F7F4FC801AE
:105110000E947A2C0C0D1D1D8C8187FDD3CFF801C8
:10512000108201501109E016F10630F4F801808177
:105130008A30A9F38D3099F36AE070E0C7010E94CC
:10514000832C009701F1019665E27AE00E94612CC0
:10515000DD24D394009709F0D12C511003C0892B82
:1051600009F493CF80919A0180FF8FCFFF92EF9245
:1051700089E19AE09F938F930E943D060F900F90D4
:105180000F900F9082CFC701DFCF8F929F92AF9287
:10519000BF92CF92DF92EF92FF920F931F93CF9324
:1051A000DF93CDB7DEB78C015B014A01CDB6DEB629
:1051B0000E94712C01962DB73EB7281B390B0FB6F4
:1051C000F8943EBF0FBE2DBF8DB79EB701967C01F0
:1051D000B8010E946A2C06E910E020E0A401B501A4
:1051E000C7010E9462270FB6F894DEBE0FBECDBE87
:1051F000DF91CF911F910F91FF90EF90DF90CF90B3
:10520000BF90AF909F908F9008958F929F92AF9292
:10521000BF92CF92DF92EF92FF920F931F93CF93A3
:10522000DF93CDB7DEB7CA57D1090FB6F894DEBF0A
:105230000FBECDBF8C019091B0018091B101981348
:1052400059C02091430380914203281709F452C0AA
:105250008AE0829F900111242E543E4FF901DE0115
:10526000AF58BF4F01900D928A95E1F7F901D080B8
:10527000E180F280C580B680A780908481840E94FE
:10528000981A90934F0380934E038E159F0508F450
:1052900045C08E159F0509F048C0DD2009F460C0A7
:1052A000F1E0DF1609F4AAC0809143032091420384
:1052B000821741F090E0019668E270E00E94092CAC
:1052C0008093430380919A0180FF14C0809143032F
:1052D000622F681B770B77FDAEC0281B1F922F93A0
:1052E0008EE69AE09F938F930E943D060F900F9059
:1052F0000F900F90C658DF4F0FB6F894DEBF0FBE69
:10530000CDBFDF91CF911F910F91FF90EF90DF9074
:10531000CF90BF90AF909F908F9008959C012E19D1
:105320003F092130310509F4B8CF20919A0120FFBF
:10533000B4CF8E159F0578F08E199F099F938F9398
:1053400080EF98E09F938F930E943D060F900F90FF
:105350000F900F90A2CFE094F0948E0D9F1DEECF92
:1053600067EB78E09E012F5F3F4F7901C9010E94F2
:105370006A2C1F928F921F929F921F92AF921F9240
:10538000BF921F92CF92E6968FADE6971F928F93B2
:10539000E5968FADE5971F928F93FF92EF921F9244
:1053A00080E38F937E0131E4E30EF11CFF92EF92D4
:1053B0000E94962C21E050E040E070E060E0C701E0
:1053C0000E9462270FB6F894DEBF0FBECDBF90914A
:1053D0009A019170811168CF21F082E59AE00E94D4
:1053E000A4057FEF82E597E0715080409040E1F79F
:1053F00000C0000081E00E94B4267CCF6CE978E018
:10540000CE0101967C010E946A2CE6968FADE6974C
:105410008F93E5968FADE5978F93FF92EF921F9252
:1054200080E38F937E0191E4E90EF11CFF92EF92ED
:105430000E94962CBFCF285D50CF20E5FC01208331
:105440009FB7F894289A209A8CB580618CBD8CB552
:1054500080648CBD219A229A9FBF08958091440355
:105460000895EF92FF920F931F93CF93DF93CDB7E1
:10547000DEB7C258D1090FB6F894DEBF0FBECDBF5C
:1054800080914503811122C010924603109244037B
:1054900055985D98549A5C9A8AEA91E00E941D2A78
:1054A000569A5E9A5E988FE39CE90197F1F700C0E7
:1054B00000005E9A9FEF23ED80E3915020408040F2
:1054C000E1F700C0000081E080934503109246039D
:1054D00006E819E0CE0101967C0142E050E0B801F7
:1054E000CE018F579F4F0E94582C40E850E0B701E3
:1054F000CF57DF4F88819981C158D0400E94C5287D
:1055000081112EC080919A0180FF1AC0FF92EF9204
:10551000CE57DF4F8881C258D0408F93CF57DF4F8F
:105520008881C158D0408F938AE699E09F938F93EA
:105530000E943D060F900F900F900F900F900F90CC
:1055400080914603CE57DF4F0FB6F894DEBF0FBEF3
:10555000CDBFDF91CF911F910F91FF90EF900895F4
:105560000E5F1F4F99E00239190709F0B6CF81E0AD
:10557000809346030E94981A90934F0380934E03A2
:10558000DFCF1F93CF93DF93CDB7DEB7E0970FB692
:10559000F894DEBF0FBECDBF80914603811105C0D8
:1055A0000E94312A882309F475C081E00E94B42644
:1055B0008AE090E00E94052980914E0390914F036C
:1055C0000E94B01A893E934008F440C0809147037E
:1055D000811117C040E350E0BE016F5F7F4F84E24E
:1055E00099E00E94C528882349F040E350E0BE01BD
:1055F0006F5F7F4F81E199E00E94C52881E0809331
:1056000047030E94981A90934F0380934E0340E300
:1056100050E0BE016F5F7F4F83E099E00E94C52894
:105620008823A1F0CE0101960E943A2C11E0009748
:1056300009F410E020914403121741F0892BA1F1E5
:1056400082E599E00E94A4051093440380914803E9
:10565000909149030E94B01A81319742D8F09091FD
:10566000B0018091B101981315C00E94981A9093CF
:1056700049038093480387E00E940C26092E000C02
:10568000AA0BBB0B80934A0390934B03A0934C034C
:10569000B0934D03E0960FB6F894DEBF0FBECDBFBA
:1056A000DF91CF911F91089587E399E0CBCF6F925F
:1056B0007F928F929F92AF92CF92EF92FF920F9331
:1056C0001F93CF93DF93C82EEB01142F0E94981ADB
:1056D0003C01A12C88E2E82EF12C0AE0112309F408
:1056E00053C0998020E0123008F02A81133008F46A
:1056F0004DC04B81143008F44AC08C80153008F43A
:1057000047C03D81E09142038E2F90E00196B701A2
:105710000E94092C90914303981311C0A11008C056
:1057200080919A0180FF04C088E898E00E94A40557
:1057300086E990E00E940529AA24A394CFCF9881FE
:10574000E09FF0011124EE54FE4F108272826182BC
:10575000C382948395822683478380863187809392
:105760004203173070F481E0DF91CF911F910F91C8
:10577000FF90EF90CF90AF909F908F907F906F9021
:10578000089516502696AACF912C20E040E0812C57
:1057900030E0B8CF0F931F93CF93DF93EC0108E273
:1057A00010E0E09142038E2F90E00196B8010E9434
:1057B000092C90914303981305C086E990E00E945C
:1057C0000529EFCF9AE0E99FF0011124EE54FE4F36
:1057D00091E09083D483C3838093420381E0DF917F
:1057E000CF911F910F91089510924203109243039D
:1057F000ECEAF1E0148215820895991B79E004C067
:10580000991F961708F0961B881F7A95C9F78095FF
:10581000089597FB072E16F4009407D077FD09D062
:105820000E94262C07FC05D03EF4909581959F4F51
:105830000895709561957F4F0895EE0FFF1F002426
:10584000001C0BBE0790F691E02D0994AA1BBB1B10
:1058500051E107C0AA1FBB1FA617B70710F0A61B70
:10586000B70B881F991F5A95A9F780959095BC0191
:10587000CD010895FC0188279927E89421912032D1
:10588000E9F3293010F02E30C8F32B3241F02D32DD
:1058900039F4689404C00E948E2C820F911D2191CE
:1058A00020532A30C0F31EF4909581959F4F0895A0
:1058B000FB01DC0102C005900D9241505040D8F729
:1058C0000895FB01DC018D91059080190110D9F339
:1058D000990B0895FB01DC0105900D920020E1F782
:1058E0000895FC0105900020E9F7809590958E0FB2
:1058F0009F1F0895FB01DC0102C001900D924150F1
:105900005040D8F70895FC0181E090E00190061620
:1059100009F4CF010020D1F7019708957AE0979F0D
:10592000902D879F802D910D112408950F931F9323
:10593000CF93DF93CDB7DEB72E970FB6F894DEBFC7
:105940000FBECDBF0D891E898F89988D26E02C83CF
:105950001A83098397FF02C080E090E801979E8335
:105960008D83AE01455E5F4F698D7A8DCE010196C4
:105970000E94D32C4D815E8157FD0AC02F8138854E
:10598000421753070CF49A01020F131FF8011082FB
:105990002E960FB6F894DEBF0FBECDBFDF91CF912C
:1059A0001F910F9108952F923F924F925F926F92A5
:1059B0007F928F929F92AF92BF92CF92DF92EF929F
:1059C000FF920F931F93CF93DF93CDB7DEB72B9743
:1059D0000FB6F894DEBF0FBECDBF7C013B018A013C
:1059E000FC0117821682838181FFCEC19AE0292EA5
:1059F000CE0101965C01F7019381F30193FD85913E
:105A000093FF81913F01882309F446C1853239F41F
:105A100093FD859193FF81913F01853229F4B70170
:105A200090E00E94DD2EE7CF912C412C512CFFE11C
:105A3000F51538F08B3209F188F4803201F18332A8
:105A400021F157FC3AC020ED280F2A3040F556FED0
:105A50001FC0929C200D1124922E06C08D3291F011
:105A6000803379F7689450F8F30193FD859193FFA3
:105A700081913F018111DBCF20C0689451F8689477
:105A800052F8F2CF689453F8EFCF689454F8ECCF03
:105A9000429C200D1124422E689455F8E5CF8E3299
:105AA00029F456FCF9C0689456F8DECF8C3619F408
:105AB000689457F8D9CF8836B9F2982F9F7D9554BE
:105AC0009330C0F08336A1F18337C1F1833509F0FB
:105AD0005BC0F801C190D1908F01692D70E056FC38
